{
  "_format": "hh-sol-artifact-1",
  "contractName": "FionaThroughChildrensEyes",
  "sourceName": "contracts/Fiona.sol",
  "abi": [
    {
      "inputs": [
        {
          "internalType": "uint96",
          "name": "_royaltyFeesInBips",
          "type": "uint96"
        },
        {
          "internalType": "address",
          "name": "_royalty",
          "type": "address"
        },
        {
          "internalType": "string",
          "name": "_URI",
          "type": "string"
        }
      ],
      "stateMutability": "nonpayable",
      "type": "constructor"
    },
    {
      "inputs": [],
      "name": "ApprovalCallerNotOwnerNorApproved",
      "type": "error"
    },
    {
      "inputs": [],
      "name": "ApprovalQueryForNonexistentToken",
      "type": "error"
    },
    {
      "inputs": [],
      "name": "BalanceQueryForZeroAddress",
      "type": "error"
    },
    {
      "inputs": [],
      "name": "MintERC2309QuantityExceedsLimit",
      "type": "error"
    },
    {
      "inputs": [],
      "name": "MintToZeroAddress",
      "type": "error"
    },
    {
      "inputs": [],
      "name": "MintZeroQuantity",
      "type": "error"
    },
    {
      "inputs": [],
      "name": "OwnerQueryForNonexistentToken",
      "type": "error"
    },
    {
      "inputs": [],
      "name": "OwnershipNotInitializedForExtraData",
      "type": "error"
    },
    {
      "inputs": [],
      "name": "TransferCallerNotOwnerNorApproved",
      "type": "error"
    },
    {
      "inputs": [],
      "name": "TransferFromIncorrectOwner",
      "type": "error"
    },
    {
      "inputs": [],
      "name": "TransferToNonERC721ReceiverImplementer",
      "type": "error"
    },
    {
      "inputs": [],
      "name": "TransferToZeroAddress",
      "type": "error"
    },
    {
      "inputs": [],
      "name": "URIQueryForNonexistentToken",
      "type": "error"
    },
    {
      "anonymous": false,
      "inputs": [
        {
          "indexed": true,
          "internalType": "address",
          "name": "owner",
          "type": "address"
        },
        {
          "indexed": true,
          "internalType": "address",
          "name": "approved",
          "type": "address"
        },
        {
          "indexed": true,
          "internalType": "uint256",
          "name": "tokenId",
          "type": "uint256"
        }
      ],
      "name": "Approval",
      "type": "event"
    },
    {
      "anonymous": false,
      "inputs": [
        {
          "indexed": true,
          "internalType": "address",
          "name": "owner",
          "type": "address"
        },
        {
          "indexed": true,
          "internalType": "address",
          "name": "operator",
          "type": "address"
        },
        {
          "indexed": false,
          "internalType": "bool",
          "name": "approved",
          "type": "bool"
        }
      ],
      "name": "ApprovalForAll",
      "type": "event"
    },
    {
      "anonymous": false,
      "inputs": [
        {
          "indexed": true,
          "internalType": "uint256",
          "name": "fromTokenId",
          "type": "uint256"
        },
        {
          "indexed": false,
          "internalType": "uint256",
          "name": "toTokenId",
          "type": "uint256"
        },
        {
          "indexed": true,
          "internalType": "address",
          "name": "from",
          "type": "address"
        },
        {
          "indexed": true,
          "internalType": "address",
          "name": "to",
          "type": "address"
        }
      ],
      "name": "ConsecutiveTransfer",
      "type": "event"
    },
    {
      "anonymous": false,
      "inputs": [
        {
          "indexed": true,
          "internalType": "address",
          "name": "previousOwner",
          "type": "address"
        },
        {
          "indexed": true,
          "internalType": "address",
          "name": "newOwner",
          "type": "address"
        }
      ],
      "name": "OwnershipTransferred",
      "type": "event"
    },
    {
      "anonymous": false,
      "inputs": [
        {
          "indexed": true,
          "internalType": "address",
          "name": "from",
          "type": "address"
        },
        {
          "indexed": true,
          "internalType": "address",
          "name": "to",
          "type": "address"
        },
        {
          "indexed": true,
          "internalType": "uint256",
          "name": "tokenId",
          "type": "uint256"
        }
      ],
      "name": "Transfer",
      "type": "event"
    },
    {
      "inputs": [],
      "name": "MAX_SUPPLY",
      "outputs": [
        {
          "internalType": "uint256",
          "name": "",
          "type": "uint256"
        }
      ],
      "stateMutability": "view",
      "type": "function"
    },
    {
      "inputs": [],
      "name": "PUBLIC_SALE_PRICE",
      "outputs": [
        {
          "internalType": "uint256",
          "name": "",
          "type": "uint256"
        }
      ],
      "stateMutability": "view",
      "type": "function"
    },
    {
      "inputs": [
        {
          "internalType": "address",
          "name": "to",
          "type": "address"
        },
        {
          "internalType": "uint256",
          "name": "tokenId",
          "type": "uint256"
        }
      ],
      "name": "approve",
      "outputs": [],
      "stateMutability": "payable",
      "type": "function"
    },
    {
      "inputs": [
        {
          "internalType": "address",
          "name": "owner",
          "type": "address"
        }
      ],
      "name": "balanceOf",
      "outputs": [
        {
          "internalType": "uint256",
          "name": "",
          "type": "uint256"
        }
      ],
      "stateMutability": "view",
      "type": "function"
    },
    {
      "inputs": [],
      "name": "baseTokenUri",
      "outputs": [
        {
          "internalType": "string",
          "name": "",
          "type": "string"
        }
      ],
      "stateMutability": "view",
      "type": "function"
    },
    {
      "inputs": [
        {
          "internalType": "uint256",
          "name": "tokenId",
          "type": "uint256"
        }
      ],
      "name": "getApproved",
      "outputs": [
        {
          "internalType": "address",
          "name": "",
          "type": "address"
        }
      ],
      "stateMutability": "view",
      "type": "function"
    },
    {
      "inputs": [
        {
          "internalType": "address",
          "name": "owner",
          "type": "address"
        },
        {
          "internalType": "address",
          "name": "operator",
          "type": "address"
        }
      ],
      "name": "isApprovedForAll",
      "outputs": [
        {
          "internalType": "bool",
          "name": "",
          "type": "bool"
        }
      ],
      "stateMutability": "view",
      "type": "function"
    },
    {
      "inputs": [
        {
          "internalType": "uint256",
          "name": "_quantity",
          "type": "uint256"
        }
      ],
      "name": "mint",
      "outputs": [],
      "stateMutability": "payable",
      "type": "function"
    },
    {
      "inputs": [],
      "name": "name",
      "outputs": [
        {
          "internalType": "string",
          "name": "",
          "type": "string"
        }
      ],
      "stateMutability": "view",
      "type": "function"
    },
    {
      "inputs": [],
      "name": "owner",
      "outputs": [
        {
          "internalType": "address",
          "name": "",
          "type": "address"
        }
      ],
      "stateMutability": "view",
      "type": "function"
    },
    {
      "inputs": [
        {
          "internalType": "uint256",
          "name": "tokenId",
          "type": "uint256"
        }
      ],
      "name": "ownerOf",
      "outputs": [
        {
          "internalType": "address",
          "name": "",
          "type": "address"
        }
      ],
      "stateMutability": "view",
      "type": "function"
    },
    {
      "inputs": [],
      "name": "paused",
      "outputs": [
        {
          "internalType": "bool",
          "name": "",
          "type": "bool"
        }
      ],
      "stateMutability": "view",
      "type": "function"
    },
    {
      "inputs": [],
      "name": "publicSale",
      "outputs": [
        {
          "internalType": "bool",
          "name": "",
          "type": "bool"
        }
      ],
      "stateMutability": "view",
      "type": "function"
    },
    {
      "inputs": [],
      "name": "renounceOwnership",
      "outputs": [],
      "stateMutability": "nonpayable",
      "type": "function"
    },
    {
      "inputs": [
        {
          "internalType": "uint256",
          "name": "_tokenId",
          "type": "uint256"
        },
        {
          "internalType": "uint256",
          "name": "_salePrice",
          "type": "uint256"
        }
      ],
      "name": "royaltyInfo",
      "outputs": [
        {
          "internalType": "address",
          "name": "",
          "type": "address"
        },
        {
          "internalType": "uint256",
          "name": "",
          "type": "uint256"
        }
      ],
      "stateMutability": "view",
      "type": "function"
    },
    {
      "inputs": [
        {
          "internalType": "address",
          "name": "from",
          "type": "address"
        },
        {
          "internalType": "address",
          "name": "to",
          "type": "address"
        },
        {
          "internalType": "uint256",
          "name": "tokenId",
          "type": "uint256"
        }
      ],
      "name": "safeTransferFrom",
      "outputs": [],
      "stateMutability": "payable",
      "type": "function"
    },
    {
      "inputs": [
        {
          "internalType": "address",
          "name": "from",
          "type": "address"
        },
        {
          "internalType": "address",
          "name": "to",
          "type": "address"
        },
        {
          "internalType": "uint256",
          "name": "tokenId",
          "type": "uint256"
        },
        {
          "internalType": "bytes",
          "name": "_data",
          "type": "bytes"
        }
      ],
      "name": "safeTransferFrom",
      "outputs": [],
      "stateMutability": "payable",
      "type": "function"
    },
    {
      "inputs": [
        {
          "internalType": "address",
          "name": "operator",
          "type": "address"
        },
        {
          "internalType": "bool",
          "name": "approved",
          "type": "bool"
        }
      ],
      "name": "setApprovalForAll",
      "outputs": [],
      "stateMutability": "nonpayable",
      "type": "function"
    },
    {
      "inputs": [
        {
          "internalType": "string",
          "name": "_baseTokenUri",
          "type": "string"
        }
      ],
      "name": "setTokenUri",
      "outputs": [],
      "stateMutability": "nonpayable",
      "type": "function"
    },
    {
      "inputs": [
        {
          "internalType": "bytes4",
          "name": "interfaceId",
          "type": "bytes4"
        }
      ],
      "name": "supportsInterface",
      "outputs": [
        {
          "internalType": "bool",
          "name": "",
          "type": "bool"
        }
      ],
      "stateMutability": "view",
      "type": "function"
    },
    {
      "inputs": [],
      "name": "symbol",
      "outputs": [
        {
          "internalType": "string",
          "name": "",
          "type": "string"
        }
      ],
      "stateMutability": "view",
      "type": "function"
    },
    {
      "inputs": [],
      "name": "togglePause",
      "outputs": [],
      "stateMutability": "nonpayable",
      "type": "function"
    },
    {
      "inputs": [],
      "name": "togglePublicSale",
      "outputs": [],
      "stateMutability": "nonpayable",
      "type": "function"
    },
    {
      "inputs": [
        {
          "internalType": "uint256",
          "name": "tokenId",
          "type": "uint256"
        }
      ],
      "name": "tokenURI",
      "outputs": [
        {
          "internalType": "string",
          "name": "",
          "type": "string"
        }
      ],
      "stateMutability": "view",
      "type": "function"
    },
    {
      "inputs": [
        {
          "internalType": "address",
          "name": "_owner",
          "type": "address"
        }
      ],
      "name": "tokensOfOwner",
      "outputs": [
        {
          "internalType": "uint256[]",
          "name": "ownerTokens",
          "type": "uint256[]"
        }
      ],
      "stateMutability": "view",
      "type": "function"
    },
    {
      "inputs": [
        {
          "internalType": "address",
          "name": "",
          "type": "address"
        }
      ],
      "name": "totalPublicMint",
      "outputs": [
        {
          "internalType": "uint256",
          "name": "",
          "type": "uint256"
        }
      ],
      "stateMutability": "view",
      "type": "function"
    },
    {
      "inputs": [],
      "name": "totalSupply",
      "outputs": [
        {
          "internalType": "uint256",
          "name": "",
          "type": "uint256"
        }
      ],
      "stateMutability": "view",
      "type": "function"
    },
    {
      "inputs": [
        {
          "internalType": "address",
          "name": "from",
          "type": "address"
        },
        {
          "internalType": "address",
          "name": "to",
          "type": "address"
        },
        {
          "internalType": "uint256",
          "name": "tokenId",
          "type": "uint256"
        }
      ],
      "name": "transferFrom",
      "outputs": [],
      "stateMutability": "payable",
      "type": "function"
    },
    {
      "inputs": [
        {
          "internalType": "address",
          "name": "newOwner",
          "type": "address"
        }
      ],
      "name": "transferOwnership",
      "outputs": [],
      "stateMutability": "nonpayable",
      "type": "function"
    },
    {
      "inputs": [],
      "name": "withdraw",
      "outputs": [],
      "stateMutability": "nonpayable",
      "type": "function"
    }
  ],
  "bytecode": "0x60806040523480156200001157600080fd5b50604051620020163803806200201683398101604081905262000034916200023a565b6040518060400160405280600c81526020016b466c6f72206465204c6f746f60a01b81525060405180604001604052806004815260200163232627a960e11b8152508160029081620000879190620003df565b506003620000968282620003df565b5050600160005550620000a933620000cd565b620000b582846200011f565b600b620000c38282620003df565b50505050620004ab565b600880546001600160a01b038381166001600160a01b0319831681179093556040519116919082907f8be0079c531659141344cd1fd0a4f28419497f9722a3daafe3b4186f6b6457e090600090a35050565b6127106001600160601b0382161115620001935760405162461bcd60e51b815260206004820152602a60248201527f455243323938313a20726f79616c7479206665652077696c6c206578636565646044820152692073616c65507269636560b01b60648201526084015b60405180910390fd5b6001600160a01b038216620001eb5760405162461bcd60e51b815260206004820152601960248201527f455243323938313a20696e76616c69642072656365697665720000000000000060448201526064016200018a565b604080518082019091526001600160a01b039092168083526001600160601b039091166020909201829052600160a01b90910217600955565b634e487b7160e01b600052604160045260246000fd5b6000806000606084860312156200025057600080fd5b83516001600160601b03811681146200026857600080fd5b602085810151919450906001600160a01b03811681146200028857600080fd5b60408601519093506001600160401b0380821115620002a657600080fd5b818701915087601f830112620002bb57600080fd5b815181811115620002d057620002d062000224565b604051601f8201601f19908116603f01168101908382118183101715620002fb57620002fb62000224565b816040528281528a868487010111156200031457600080fd5b600093505b8284101562000338578484018601518185018701529285019262000319565b60008684830101528096505050505050509250925092565b600181811c908216806200036557607f821691505b6020821081036200038657634e487b7160e01b600052602260045260246000fd5b50919050565b601f821115620003da57600081815260208120601f850160051c81016020861015620003b55750805b601f850160051c820191505b81811015620003d657828155600101620003c1565b5050505b505050565b81516001600160401b03811115620003fb57620003fb62000224565b62000413816200040c845462000350565b846200038c565b602080601f8311600181146200044b5760008415620004325750858301515b600019600386901b1c1916600185901b178555620003d6565b600085815260208120601f198616915b828110156200047c578886015182559484019460019091019084016200045b565b50858210156200049b5787850151600019600388901b60f8161c191681555b5050505050600190811b01905550565b611b5b80620004bb6000396000f3fe6080604052600436106101cd5760003560e01c80636352211e116100f7578063a0712d6811610095578063c87b56dd11610064578063c87b56dd146104f7578063e222c7f914610517578063e985e9c51461052c578063f2fde38b1461054c57600080fd5b8063a0712d681461049c578063a22cb465146104af578063b88d4fde146104cf578063c4ae3168146104e257600080fd5b80637a0101a2116100d15780637a0101a2146104275780638462151c1461043c5780638da5cb5b1461046957806395d89b411461048757600080fd5b80636352211e146103d257806370a08231146103f2578063715018a61461041257600080fd5b80631c16521c1161016f57806333bc1c5c1161013e57806333bc1c5c146103715780633ccfd60b1461038b57806342842e0e146103a05780635c975abb146103b357600080fd5b80631c16521c146102dc57806323b872dd146103095780632a55205a1461031c57806332cb6b0c1461035b57600080fd5b806307e89ec0116101ab57806307e89ec01461024b578063081812fc14610274578063095ea7b3146102ac57806318160ddd146102bf57600080fd5b806301ffc9a7146101d25780630675b7c61461020757806306fdde0314610229575b600080fd5b3480156101de57600080fd5b506101f26101ed3660046114de565b61056c565b60405190151581526020015b60405180910390f35b34801561021357600080fd5b50610227610222366004611587565b61057d565b005b34801561023557600080fd5b5061023e610595565b6040516101fe9190611620565b34801561025757600080fd5b50610266660e35fa931a000081565b6040519081526020016101fe565b34801561028057600080fd5b5061029461028f366004611633565b610627565b6040516001600160a01b0390911681526020016101fe565b6102276102ba366004611668565b61066b565b3480156102cb57600080fd5b506001546000540360001901610266565b3480156102e857600080fd5b506102666102f7366004611692565b600d6020526000908152604090205481565b6102276103173660046116ad565b61070b565b34801561032857600080fd5b5061033c6103373660046116e9565b6108a4565b604080516001600160a01b0390931683526020830191909152016101fe565b34801561036757600080fd5b5061026661273381565b34801561037d57600080fd5b50600c546101f29060ff1681565b34801561039757600080fd5b50610227610950565b6102276103ae3660046116ad565b6109b0565b3480156103bf57600080fd5b50600c546101f290610100900460ff1681565b3480156103de57600080fd5b506102946103ed366004611633565b6109d0565b3480156103fe57600080fd5b5061026661040d366004611692565b6109db565b34801561041e57600080fd5b50610227610a2a565b34801561043357600080fd5b5061023e610a3e565b34801561044857600080fd5b5061045c610457366004611692565b610acc565b6040516101fe919061170b565b34801561047557600080fd5b506008546001600160a01b0316610294565b34801561049357600080fd5b5061023e610bcc565b6102276104aa366004611633565b610bdb565b3480156104bb57600080fd5b506102276104ca36600461174f565b610d64565b6102276104dd36600461178b565b610dd0565b3480156104ee57600080fd5b50610227610e1a565b34801561050357600080fd5b5061023e610512366004611633565b610e3f565b34801561052357600080fd5b50610227610f0a565b34801561053857600080fd5b506101f2610547366004611807565b610f26565b34801561055857600080fd5b50610227610567366004611692565b610f54565b600061057782610fca565b92915050565b610585610fff565b600b61059182826118b4565b5050565b6060600280546105a49061183a565b80601f01602080910402602001604051908101604052809291908181526020018280546105d09061183a565b801561061d5780601f106105f25761010080835404028352916020019161061d565b820191906000526020600020905b81548152906001019060200180831161060057829003601f168201915b5050505050905090565b600061063282611059565b61064f576040516333d1c03960e21b815260040160405180910390fd5b506000908152600660205260409020546001600160a01b031690565b6000610676826109d0565b9050336001600160a01b038216146106af576106928133610f26565b6106af576040516367d9dca160e11b815260040160405180910390fd5b60008281526006602052604080822080546001600160a01b0319166001600160a01b0387811691821790925591518593918516917f8c5be1e5ebec7d5bd14f71427d1e84f3dd0314c0f7b2291e5b200ac8c7c3b92591a4505050565b60006107168261108e565b9050836001600160a01b0316816001600160a01b0316146107495760405162a1148160e81b815260040160405180910390fd5b60008281526006602052604090208054338082146001600160a01b03881690911417610796576107798633610f26565b61079657604051632ce44b5f60e11b815260040160405180910390fd5b6001600160a01b0385166107bd57604051633a954ecd60e21b815260040160405180910390fd5b80156107c857600082555b6001600160a01b038681166000908152600560205260408082208054600019019055918716808252919020805460010190554260a01b17600160e11b17600085815260046020526040812091909155600160e11b8416900361085a576001840160008181526004602052604081205490036108585760005481146108585760008181526004602052604090208490555b505b83856001600160a01b0316876001600160a01b03167fddf252ad1be2c89b69c2b068fc378daa952ba7f163c4a11628f55a4df523b3ef60405160405180910390a45b505050505050565b6000828152600a602090815260408083208151808301909252546001600160a01b038116808352600160a01b9091046001600160601b03169282019290925282916109195750604080518082019091526009546001600160a01b0381168252600160a01b90046001600160601b031660208201525b602081015160009061271090610938906001600160601b03168761198a565b61094291906119b7565b915196919550909350505050565b610958610fff565b604051600090339047908381818185875af1925050503d806000811461099a576040519150601f19603f3d011682016040523d82523d6000602084013e61099f565b606091505b50509050806109ad57600080fd5b50565b6109cb83838360405180602001604052806000815250610dd0565b505050565b60006105778261108e565b60006001600160a01b038216610a04576040516323d3ad8160e21b815260040160405180910390fd5b506001600160a01b031660009081526005602052604090205467ffffffffffffffff1690565b610a32610fff565b610a3c6000611104565b565b600b8054610a4b9061183a565b80601f0160208091040260200160405190810160405280929190818152602001828054610a779061183a565b8015610ac45780601f10610a9957610100808354040283529160200191610ac4565b820191906000526020600020905b815481529060010190602001808311610aa757829003601f168201915b505050505081565b60606000610ad9836109db565b905080600003610af9575050604080516000815260208101909152919050565b60008167ffffffffffffffff811115610b1457610b146114fb565b604051908082528060200260200182016040528015610b3d578160200160208202803683370190505b50600154600080549293509103600019019050600060015b828111610bbb57866001600160a01b0316610b6f826109d0565b6001600160a01b031603610ba95780848381518110610b9057610b906119cb565b602090810291909101015281610ba5816119e1565b9250505b80610bb3816119e1565b915050610b55565b509195945050505050565b50919050565b6060600380546105a49061183a565b600c54610100900460ff1615610c2a5760405162461bcd60e51b815260206004820152600f60248201526e10dbdb9d1c9858dd0814185d5cd959608a1b60448201526064015b60405180910390fd5b600c5460ff16610c7c5760405162461bcd60e51b815260206004820152601760248201527f46696f6e61202d204e6f7420596574204163746976652e0000000000000000006044820152606401610c21565b6001546000546127339183910360001901610c9791906119fa565b1115610ce55760405162461bcd60e51b815260206004820152601960248201527f46696f6e61202d204265796f6e64204d617820537570706c79000000000000006044820152606401610c21565b610cf681660e35fa931a000061198a565b341015610d355760405162461bcd60e51b815260206004820152600d60248201526c46696f6e61202d2042656c6f7760981b6044820152606401610c21565b336000908152600d602052604081208054839290610d549084906119fa565b909155506109ad90503382611156565b3360008181526007602090815260408083206001600160a01b03871680855290835292819020805460ff191686151590811790915590519081529192917f17307eab39ab6107e8899845ad3d59bd9653f200f220920489ca2b5937696c31910160405180910390a35050565b610ddb84848461070b565b6001600160a01b0383163b15610e1457610df784848484611170565b610e14576040516368d2bf6b60e11b815260040160405180910390fd5b50505050565b610e22610fff565b600c805461ff001981166101009182900460ff1615909102179055565b6060610e4a82611059565b610eae5760405162461bcd60e51b815260206004820152602f60248201527f4552433732314d657461646174613a2055524920717565727920666f72206e6f60448201526e3732bc34b9ba32b73a103a37b5b2b760891b6064820152608401610c21565b6000600b8054610ebd9061183a565b905011610ed95760405180602001604052806000815250610577565b600b610ee48361125c565b604051602001610ef5929190611a0d565b60405160208183030381529060405292915050565b610f12610fff565b600c805460ff19811660ff90911615179055565b6001600160a01b03918216600090815260076020908152604080832093909416825291909152205460ff1690565b610f5c610fff565b6001600160a01b038116610fc15760405162461bcd60e51b815260206004820152602660248201527f4f776e61626c653a206e6577206f776e657220697320746865207a65726f206160448201526564647265737360d01b6064820152608401610c21565b6109ad81611104565b60006001600160e01b0319821663152a902d60e11b148061057757506301ffc9a760e01b6001600160e01b0319831614610577565b6008546001600160a01b03163314610a3c5760405162461bcd60e51b815260206004820181905260248201527f4f776e61626c653a2063616c6c6572206973206e6f7420746865206f776e65726044820152606401610c21565b60008160011115801561106d575060005482105b8015610577575050600090815260046020526040902054600160e01b161590565b600081806001116110eb576000548110156110eb5760008181526004602052604081205490600160e01b821690036110e9575b806000036110e25750600019016000818152600460205260409020546110c1565b9392505050565b505b604051636f96cda160e11b815260040160405180910390fd5b600880546001600160a01b038381166001600160a01b0319831681179093556040519116919082907f8be0079c531659141344cd1fd0a4f28419497f9722a3daafe3b4186f6b6457e090600090a35050565b61059182826040518060200160405280600081525061135d565b604051630a85bd0160e11b81526000906001600160a01b0385169063150b7a02906111a5903390899088908890600401611aa4565b6020604051808303816000875af19250505080156111e0575060408051601f3d908101601f191682019092526111dd91810190611ae1565b60015b61123e573d80801561120e576040519150601f19603f3d011682016040523d82523d6000602084013e611213565b606091505b508051600003611236576040516368d2bf6b60e11b815260040160405180910390fd5b805181602001fd5b6001600160e01b031916630a85bd0160e11b1490505b949350505050565b6060816000036112835750506040805180820190915260018152600360fc1b602082015290565b8160005b81156112ad5780611297816119e1565b91506112a69050600a836119b7565b9150611287565b60008167ffffffffffffffff8111156112c8576112c86114fb565b6040519080825280601f01601f1916602001820160405280156112f2576020820181803683370190505b5090505b841561125457611307600183611afe565b9150611314600a86611b11565b61131f9060306119fa565b60f81b818381518110611334576113346119cb565b60200101906001600160f81b031916908160001a905350611356600a866119b7565b94506112f6565b61136783836113ca565b6001600160a01b0383163b156109cb576000548281035b6113916000868380600101945086611170565b6113ae576040516368d2bf6b60e11b815260040160405180910390fd5b81811061137e5781600054146113c357600080fd5b5050505050565b60008054908290036113ef5760405163b562e8dd60e01b815260040160405180910390fd5b6001600160a01b03831660008181526005602090815260408083208054680100000000000000018802019055848352600490915281206001851460e11b4260a01b178317905582840190839083907fddf252ad1be2c89b69c2b068fc378daa952ba7f163c4a11628f55a4df523b3ef8180a4600183015b81811461149e57808360007fddf252ad1be2c89b69c2b068fc378daa952ba7f163c4a11628f55a4df523b3ef600080a4600101611466565b50816000036114bf57604051622e076360e81b815260040160405180910390fd5b60005550505050565b6001600160e01b0319811681146109ad57600080fd5b6000602082840312156114f057600080fd5b81356110e2816114c8565b634e487b7160e01b600052604160045260246000fd5b600067ffffffffffffffff8084111561152c5761152c6114fb565b604051601f8501601f19908116603f01168101908282118183101715611554576115546114fb565b8160405280935085815286868601111561156d57600080fd5b858560208301376000602087830101525050509392505050565b60006020828403121561159957600080fd5b813567ffffffffffffffff8111156115b057600080fd5b8201601f810184136115c157600080fd5b61125484823560208401611511565b60005b838110156115eb5781810151838201526020016115d3565b50506000910152565b6000815180845261160c8160208601602086016115d0565b601f01601f19169290920160200192915050565b6020815260006110e260208301846115f4565b60006020828403121561164557600080fd5b5035919050565b80356001600160a01b038116811461166357600080fd5b919050565b6000806040838503121561167b57600080fd5b6116848361164c565b946020939093013593505050565b6000602082840312156116a457600080fd5b6110e28261164c565b6000806000606084860312156116c257600080fd5b6116cb8461164c565b92506116d96020850161164c565b9150604084013590509250925092565b600080604083850312156116fc57600080fd5b50508035926020909101359150565b6020808252825182820181905260009190848201906040850190845b8181101561174357835183529284019291840191600101611727565b50909695505050505050565b6000806040838503121561176257600080fd5b61176b8361164c565b91506020830135801515811461178057600080fd5b809150509250929050565b600080600080608085870312156117a157600080fd5b6117aa8561164c565b93506117b86020860161164c565b925060408501359150606085013567ffffffffffffffff8111156117db57600080fd5b8501601f810187136117ec57600080fd5b6117fb87823560208401611511565b91505092959194509250565b6000806040838503121561181a57600080fd5b6118238361164c565b91506118316020840161164c565b90509250929050565b600181811c9082168061184e57607f821691505b602082108103610bc657634e487b7160e01b600052602260045260246000fd5b601f8211156109cb57600081815260208120601f850160051c810160208610156118955750805b601f850160051c820191505b8181101561089c578281556001016118a1565b815167ffffffffffffffff8111156118ce576118ce6114fb565b6118e2816118dc845461183a565b8461186e565b602080601f83116001811461191757600084156118ff5750858301515b600019600386901b1c1916600185901b17855561089c565b600085815260208120601f198616915b8281101561194657888601518255948401946001909101908401611927565b50858210156119645787850151600019600388901b60f8161c191681555b5050505050600190811b01905550565b634e487b7160e01b600052601160045260246000fd5b808202811582820484141761057757610577611974565b634e487b7160e01b600052601260045260246000fd5b6000826119c6576119c66119a1565b500490565b634e487b7160e01b600052603260045260246000fd5b6000600182016119f3576119f3611974565b5060010190565b8082018082111561057757610577611974565b6000808454611a1b8161183a565b60018281168015611a335760018114611a4857611a77565b60ff1984168752821515830287019450611a77565b8860005260208060002060005b85811015611a6e5781548a820152908401908201611a55565b50505082870194505b505050508351611a8b8183602088016115d0565b64173539b7b760d91b9101908152600501949350505050565b6001600160a01b0385811682528416602082015260408101839052608060608201819052600090611ad7908301846115f4565b9695505050505050565b600060208284031215611af357600080fd5b81516110e2816114c8565b8181038181111561057757610577611974565b600082611b2057611b206119a1565b50069056fea2646970667358221220398d48b64fd32130ec079b845e3c74ccd3c317afe7156f47614cc0466013c55564736f6c63430008110033",
  "linkReferences": {},
  "deployedLinkReferences": {}
}