{
  "_format": "hh-sol-artifact-1",
  "contractName": "FionaThroughChildrensEyes",
  "sourceName": "contracts/Fiona.sol",
  "abi": [
    {
      "inputs": [
        {
          "internalType": "uint96",
          "name": "_royaltyFeesInBips",
          "type": "uint96"
        },
        {
          "internalType": "address",
          "name": "_royalty",
          "type": "address"
        },
        {
          "internalType": "string",
          "name": "_URI",
          "type": "string"
        }
      ],
      "stateMutability": "nonpayable",
      "type": "constructor"
    },
    {
      "inputs": [],
      "name": "ApprovalCallerNotOwnerNorApproved",
      "type": "error"
    },
    {
      "inputs": [],
      "name": "ApprovalQueryForNonexistentToken",
      "type": "error"
    },
    {
      "inputs": [],
      "name": "BalanceQueryForZeroAddress",
      "type": "error"
    },
    {
      "inputs": [],
      "name": "MintERC2309QuantityExceedsLimit",
      "type": "error"
    },
    {
      "inputs": [],
      "name": "MintToZeroAddress",
      "type": "error"
    },
    {
      "inputs": [],
      "name": "MintZeroQuantity",
      "type": "error"
    },
    {
      "inputs": [],
      "name": "OwnerQueryForNonexistentToken",
      "type": "error"
    },
    {
      "inputs": [],
      "name": "OwnershipNotInitializedForExtraData",
      "type": "error"
    },
    {
      "inputs": [],
      "name": "TransferCallerNotOwnerNorApproved",
      "type": "error"
    },
    {
      "inputs": [],
      "name": "TransferFromIncorrectOwner",
      "type": "error"
    },
    {
      "inputs": [],
      "name": "TransferToNonERC721ReceiverImplementer",
      "type": "error"
    },
    {
      "inputs": [],
      "name": "TransferToZeroAddress",
      "type": "error"
    },
    {
      "inputs": [],
      "name": "URIQueryForNonexistentToken",
      "type": "error"
    },
    {
      "anonymous": false,
      "inputs": [
        {
          "indexed": true,
          "internalType": "address",
          "name": "owner",
          "type": "address"
        },
        {
          "indexed": true,
          "internalType": "address",
          "name": "approved",
          "type": "address"
        },
        {
          "indexed": true,
          "internalType": "uint256",
          "name": "tokenId",
          "type": "uint256"
        }
      ],
      "name": "Approval",
      "type": "event"
    },
    {
      "anonymous": false,
      "inputs": [
        {
          "indexed": true,
          "internalType": "address",
          "name": "owner",
          "type": "address"
        },
        {
          "indexed": true,
          "internalType": "address",
          "name": "operator",
          "type": "address"
        },
        {
          "indexed": false,
          "internalType": "bool",
          "name": "approved",
          "type": "bool"
        }
      ],
      "name": "ApprovalForAll",
      "type": "event"
    },
    {
      "anonymous": false,
      "inputs": [
        {
          "indexed": true,
          "internalType": "uint256",
          "name": "fromTokenId",
          "type": "uint256"
        },
        {
          "indexed": false,
          "internalType": "uint256",
          "name": "toTokenId",
          "type": "uint256"
        },
        {
          "indexed": true,
          "internalType": "address",
          "name": "from",
          "type": "address"
        },
        {
          "indexed": true,
          "internalType": "address",
          "name": "to",
          "type": "address"
        }
      ],
      "name": "ConsecutiveTransfer",
      "type": "event"
    },
    {
      "anonymous": false,
      "inputs": [
        {
          "indexed": true,
          "internalType": "address",
          "name": "previousOwner",
          "type": "address"
        },
        {
          "indexed": true,
          "internalType": "address",
          "name": "newOwner",
          "type": "address"
        }
      ],
      "name": "OwnershipTransferred",
      "type": "event"
    },
    {
      "anonymous": false,
      "inputs": [
        {
          "indexed": true,
          "internalType": "address",
          "name": "from",
          "type": "address"
        },
        {
          "indexed": true,
          "internalType": "address",
          "name": "to",
          "type": "address"
        },
        {
          "indexed": true,
          "internalType": "uint256",
          "name": "tokenId",
          "type": "uint256"
        }
      ],
      "name": "Transfer",
      "type": "event"
    },
    {
      "inputs": [],
      "name": "MAX_SUPPLY",
      "outputs": [
        {
          "internalType": "uint256",
          "name": "",
          "type": "uint256"
        }
      ],
      "stateMutability": "view",
      "type": "function"
    },
    {
      "inputs": [],
      "name": "PUBLIC_SALE_PRICE",
      "outputs": [
        {
          "internalType": "uint256",
          "name": "",
          "type": "uint256"
        }
      ],
      "stateMutability": "view",
      "type": "function"
    },
    {
      "inputs": [
        {
          "internalType": "address",
          "name": "to",
          "type": "address"
        },
        {
          "internalType": "uint256",
          "name": "tokenId",
          "type": "uint256"
        }
      ],
      "name": "approve",
      "outputs": [],
      "stateMutability": "payable",
      "type": "function"
    },
    {
      "inputs": [
        {
          "internalType": "address",
          "name": "owner",
          "type": "address"
        }
      ],
      "name": "balanceOf",
      "outputs": [
        {
          "internalType": "uint256",
          "name": "",
          "type": "uint256"
        }
      ],
      "stateMutability": "view",
      "type": "function"
    },
    {
      "inputs": [],
      "name": "baseTokenUri",
      "outputs": [
        {
          "internalType": "string",
          "name": "",
          "type": "string"
        }
      ],
      "stateMutability": "view",
      "type": "function"
    },
    {
      "inputs": [
        {
          "internalType": "uint256",
          "name": "tokenId",
          "type": "uint256"
        }
      ],
      "name": "getApproved",
      "outputs": [
        {
          "internalType": "address",
          "name": "",
          "type": "address"
        }
      ],
      "stateMutability": "view",
      "type": "function"
    },
    {
      "inputs": [
        {
          "internalType": "address",
          "name": "owner",
          "type": "address"
        },
        {
          "internalType": "address",
          "name": "operator",
          "type": "address"
        }
      ],
      "name": "isApprovedForAll",
      "outputs": [
        {
          "internalType": "bool",
          "name": "",
          "type": "bool"
        }
      ],
      "stateMutability": "view",
      "type": "function"
    },
    {
      "inputs": [
        {
          "internalType": "uint256",
          "name": "_quantity",
          "type": "uint256"
        }
      ],
      "name": "mint",
      "outputs": [],
      "stateMutability": "payable",
      "type": "function"
    },
    {
      "inputs": [],
      "name": "name",
      "outputs": [
        {
          "internalType": "string",
          "name": "",
          "type": "string"
        }
      ],
      "stateMutability": "view",
      "type": "function"
    },
    {
      "inputs": [],
      "name": "owner",
      "outputs": [
        {
          "internalType": "address",
          "name": "",
          "type": "address"
        }
      ],
      "stateMutability": "view",
      "type": "function"
    },
    {
      "inputs": [
        {
          "internalType": "uint256",
          "name": "tokenId",
          "type": "uint256"
        }
      ],
      "name": "ownerOf",
      "outputs": [
        {
          "internalType": "address",
          "name": "",
          "type": "address"
        }
      ],
      "stateMutability": "view",
      "type": "function"
    },
    {
      "inputs": [],
      "name": "paused",
      "outputs": [
        {
          "internalType": "bool",
          "name": "",
          "type": "bool"
        }
      ],
      "stateMutability": "view",
      "type": "function"
    },
    {
      "inputs": [],
      "name": "publicSale",
      "outputs": [
        {
          "internalType": "bool",
          "name": "",
          "type": "bool"
        }
      ],
      "stateMutability": "view",
      "type": "function"
    },
    {
      "inputs": [],
      "name": "renounceOwnership",
      "outputs": [],
      "stateMutability": "nonpayable",
      "type": "function"
    },
    {
      "inputs": [
        {
          "internalType": "uint256",
          "name": "_tokenId",
          "type": "uint256"
        },
        {
          "internalType": "uint256",
          "name": "_salePrice",
          "type": "uint256"
        }
      ],
      "name": "royaltyInfo",
      "outputs": [
        {
          "internalType": "address",
          "name": "",
          "type": "address"
        },
        {
          "internalType": "uint256",
          "name": "",
          "type": "uint256"
        }
      ],
      "stateMutability": "view",
      "type": "function"
    },
    {
      "inputs": [
        {
          "internalType": "address",
          "name": "from",
          "type": "address"
        },
        {
          "internalType": "address",
          "name": "to",
          "type": "address"
        },
        {
          "internalType": "uint256",
          "name": "tokenId",
          "type": "uint256"
        }
      ],
      "name": "safeTransferFrom",
      "outputs": [],
      "stateMutability": "payable",
      "type": "function"
    },
    {
      "inputs": [
        {
          "internalType": "address",
          "name": "from",
          "type": "address"
        },
        {
          "internalType": "address",
          "name": "to",
          "type": "address"
        },
        {
          "internalType": "uint256",
          "name": "tokenId",
          "type": "uint256"
        },
        {
          "internalType": "bytes",
          "name": "_data",
          "type": "bytes"
        }
      ],
      "name": "safeTransferFrom",
      "outputs": [],
      "stateMutability": "payable",
      "type": "function"
    },
    {
      "inputs": [
        {
          "internalType": "address",
          "name": "operator",
          "type": "address"
        },
        {
          "internalType": "bool",
          "name": "approved",
          "type": "bool"
        }
      ],
      "name": "setApprovalForAll",
      "outputs": [],
      "stateMutability": "nonpayable",
      "type": "function"
    },
    {
      "inputs": [
        {
          "internalType": "string",
          "name": "_baseTokenUri",
          "type": "string"
        }
      ],
      "name": "setTokenUri",
      "outputs": [],
      "stateMutability": "nonpayable",
      "type": "function"
    },
    {
      "inputs": [
        {
          "internalType": "bytes4",
          "name": "interfaceId",
          "type": "bytes4"
        }
      ],
      "name": "supportsInterface",
      "outputs": [
        {
          "internalType": "bool",
          "name": "",
          "type": "bool"
        }
      ],
      "stateMutability": "view",
      "type": "function"
    },
    {
      "inputs": [],
      "name": "symbol",
      "outputs": [
        {
          "internalType": "string",
          "name": "",
          "type": "string"
        }
      ],
      "stateMutability": "view",
      "type": "function"
    },
    {
      "inputs": [],
      "name": "togglePause",
      "outputs": [],
      "stateMutability": "nonpayable",
      "type": "function"
    },
    {
      "inputs": [],
      "name": "togglePublicSale",
      "outputs": [],
      "stateMutability": "nonpayable",
      "type": "function"
    },
    {
      "inputs": [
        {
          "internalType": "uint256",
          "name": "tokenId",
          "type": "uint256"
        }
      ],
      "name": "tokenURI",
      "outputs": [
        {
          "internalType": "string",
          "name": "",
          "type": "string"
        }
      ],
      "stateMutability": "view",
      "type": "function"
    },
    {
      "inputs": [
        {
          "internalType": "address",
          "name": "_owner",
          "type": "address"
        }
      ],
      "name": "tokensOfOwner",
      "outputs": [
        {
          "internalType": "uint256[]",
          "name": "ownerTokens",
          "type": "uint256[]"
        }
      ],
      "stateMutability": "view",
      "type": "function"
    },
    {
      "inputs": [
        {
          "internalType": "address",
          "name": "",
          "type": "address"
        }
      ],
      "name": "totalPublicMint",
      "outputs": [
        {
          "internalType": "uint256",
          "name": "",
          "type": "uint256"
        }
      ],
      "stateMutability": "view",
      "type": "function"
    },
    {
      "inputs": [],
      "name": "totalSupply",
      "outputs": [
        {
          "internalType": "uint256",
          "name": "",
          "type": "uint256"
        }
      ],
      "stateMutability": "view",
      "type": "function"
    },
    {
      "inputs": [
        {
          "internalType": "address",
          "name": "from",
          "type": "address"
        },
        {
          "internalType": "address",
          "name": "to",
          "type": "address"
        },
        {
          "internalType": "uint256",
          "name": "tokenId",
          "type": "uint256"
        }
      ],
      "name": "transferFrom",
      "outputs": [],
      "stateMutability": "payable",
      "type": "function"
    },
    {
      "inputs": [
        {
          "internalType": "address",
          "name": "newOwner",
          "type": "address"
        }
      ],
      "name": "transferOwnership",
      "outputs": [],
      "stateMutability": "nonpayable",
      "type": "function"
    },
    {
      "inputs": [],
      "name": "withdraw",
      "outputs": [],
      "stateMutability": "nonpayable",
      "type": "function"
    }
  ],
  "bytecode": "0x60806040523480156200001157600080fd5b50604051620020143803806200201483398101604081905262000034916200023a565b6040518060400160405280600c81526020016b466c6f72206465204c6f746f60a01b81525060405180604001604052806004815260200163232627a960e11b8152508160029081620000879190620003df565b506003620000968282620003df565b5050600160005550620000a933620000cd565b620000b582846200011f565b600b620000c38282620003df565b50505050620004ab565b600880546001600160a01b038381166001600160a01b0319831681179093556040519116919082907f8be0079c531659141344cd1fd0a4f28419497f9722a3daafe3b4186f6b6457e090600090a35050565b6127106001600160601b0382161115620001935760405162461bcd60e51b815260206004820152602a60248201527f455243323938313a20726f79616c7479206665652077696c6c206578636565646044820152692073616c65507269636560b01b60648201526084015b60405180910390fd5b6001600160a01b038216620001eb5760405162461bcd60e51b815260206004820152601960248201527f455243323938313a20696e76616c69642072656365697665720000000000000060448201526064016200018a565b604080518082019091526001600160a01b039092168083526001600160601b039091166020909201829052600160a01b90910217600955565b634e487b7160e01b600052604160045260246000fd5b6000806000606084860312156200025057600080fd5b83516001600160601b03811681146200026857600080fd5b602085810151919450906001600160a01b03811681146200028857600080fd5b60408601519093506001600160401b0380821115620002a657600080fd5b818701915087601f830112620002bb57600080fd5b815181811115620002d057620002d062000224565b604051601f8201601f19908116603f01168101908382118183101715620002fb57620002fb62000224565b816040528281528a868487010111156200031457600080fd5b600093505b8284101562000338578484018601518185018701529285019262000319565b60008684830101528096505050505050509250925092565b600181811c908216806200036557607f821691505b6020821081036200038657634e487b7160e01b600052602260045260246000fd5b50919050565b601f821115620003da57600081815260208120601f850160051c81016020861015620003b55750805b601f850160051c820191505b81811015620003d657828155600101620003c1565b5050505b505050565b81516001600160401b03811115620003fb57620003fb62000224565b62000413816200040c845462000350565b846200038c565b602080601f8311600181146200044b5760008415620004325750858301515b600019600386901b1c1916600185901b178555620003d6565b600085815260208120601f198616915b828110156200047c578886015182559484019460019091019084016200045b565b50858210156200049b5787850151600019600388901b60f8161c191681555b5050505050600190811b01905550565b611b5980620004bb6000396000f3fe6080604052600436106101cd5760003560e01c80636352211e116100f7578063a0712d6811610095578063c87b56dd11610064578063c87b56dd146104f6578063e222c7f914610516578063e985e9c51461052b578063f2fde38b1461054b57600080fd5b8063a0712d681461049b578063a22cb465146104ae578063b88d4fde146104ce578063c4ae3168146104e157600080fd5b80637a0101a2116100d15780637a0101a2146104265780638462151c1461043b5780638da5cb5b1461046857806395d89b411461048657600080fd5b80636352211e146103d157806370a08231146103f1578063715018a61461041157600080fd5b80631c16521c1161016f57806333bc1c5c1161013e57806333bc1c5c146103705780633ccfd60b1461038a57806342842e0e1461039f5780635c975abb146103b257600080fd5b80631c16521c146102db57806323b872dd146103085780632a55205a1461031b57806332cb6b0c1461035a57600080fd5b806307e89ec0116101ab57806307e89ec01461024b578063081812fc14610273578063095ea7b3146102ab57806318160ddd146102be57600080fd5b806301ffc9a7146101d25780630675b7c61461020757806306fdde0314610229575b600080fd5b3480156101de57600080fd5b506101f26101ed3660046114dc565b61056b565b60405190151581526020015b60405180910390f35b34801561021357600080fd5b50610227610222366004611585565b61057c565b005b34801561023557600080fd5b5061023e610594565b6040516101fe919061161e565b34801561025757600080fd5b50610265655af3107a400081565b6040519081526020016101fe565b34801561027f57600080fd5b5061029361028e366004611631565b610626565b6040516001600160a01b0390911681526020016101fe565b6102276102b9366004611666565b61066a565b3480156102ca57600080fd5b506001546000540360001901610265565b3480156102e757600080fd5b506102656102f6366004611690565b600d6020526000908152604090205481565b6102276103163660046116ab565b61070a565b34801561032757600080fd5b5061033b6103363660046116e7565b6108a3565b604080516001600160a01b0390931683526020830191909152016101fe565b34801561036657600080fd5b5061026561273381565b34801561037c57600080fd5b50600c546101f29060ff1681565b34801561039657600080fd5b5061022761094f565b6102276103ad3660046116ab565b6109af565b3480156103be57600080fd5b50600c546101f290610100900460ff1681565b3480156103dd57600080fd5b506102936103ec366004611631565b6109cf565b3480156103fd57600080fd5b5061026561040c366004611690565b6109da565b34801561041d57600080fd5b50610227610a29565b34801561043257600080fd5b5061023e610a3d565b34801561044757600080fd5b5061045b610456366004611690565b610acb565b6040516101fe9190611709565b34801561047457600080fd5b506008546001600160a01b0316610293565b34801561049257600080fd5b5061023e610bcb565b6102276104a9366004611631565b610bda565b3480156104ba57600080fd5b506102276104c936600461174d565b610d62565b6102276104dc366004611789565b610dce565b3480156104ed57600080fd5b50610227610e18565b34801561050257600080fd5b5061023e610511366004611631565b610e3d565b34801561052257600080fd5b50610227610f08565b34801561053757600080fd5b506101f2610546366004611805565b610f24565b34801561055757600080fd5b50610227610566366004611690565b610f52565b600061057682610fc8565b92915050565b610584610ffd565b600b61059082826118b2565b5050565b6060600280546105a390611838565b80601f01602080910402602001604051908101604052809291908181526020018280546105cf90611838565b801561061c5780601f106105f15761010080835404028352916020019161061c565b820191906000526020600020905b8154815290600101906020018083116105ff57829003601f168201915b5050505050905090565b600061063182611057565b61064e576040516333d1c03960e21b815260040160405180910390fd5b506000908152600660205260409020546001600160a01b031690565b6000610675826109cf565b9050336001600160a01b038216146106ae576106918133610f24565b6106ae576040516367d9dca160e11b815260040160405180910390fd5b60008281526006602052604080822080546001600160a01b0319166001600160a01b0387811691821790925591518593918516917f8c5be1e5ebec7d5bd14f71427d1e84f3dd0314c0f7b2291e5b200ac8c7c3b92591a4505050565b60006107158261108c565b9050836001600160a01b0316816001600160a01b0316146107485760405162a1148160e81b815260040160405180910390fd5b60008281526006602052604090208054338082146001600160a01b03881690911417610795576107788633610f24565b61079557604051632ce44b5f60e11b815260040160405180910390fd5b6001600160a01b0385166107bc57604051633a954ecd60e21b815260040160405180910390fd5b80156107c757600082555b6001600160a01b038681166000908152600560205260408082208054600019019055918716808252919020805460010190554260a01b17600160e11b17600085815260046020526040812091909155600160e11b84169003610859576001840160008181526004602052604081205490036108575760005481146108575760008181526004602052604090208490555b505b83856001600160a01b0316876001600160a01b03167fddf252ad1be2c89b69c2b068fc378daa952ba7f163c4a11628f55a4df523b3ef60405160405180910390a45b505050505050565b6000828152600a602090815260408083208151808301909252546001600160a01b038116808352600160a01b9091046001600160601b03169282019290925282916109185750604080518082019091526009546001600160a01b0381168252600160a01b90046001600160601b031660208201525b602081015160009061271090610937906001600160601b031687611988565b61094191906119b5565b915196919550909350505050565b610957610ffd565b604051600090339047908381818185875af1925050503d8060008114610999576040519150601f19603f3d011682016040523d82523d6000602084013e61099e565b606091505b50509050806109ac57600080fd5b50565b6109ca83838360405180602001604052806000815250610dce565b505050565b60006105768261108c565b60006001600160a01b038216610a03576040516323d3ad8160e21b815260040160405180910390fd5b506001600160a01b031660009081526005602052604090205467ffffffffffffffff1690565b610a31610ffd565b610a3b6000611102565b565b600b8054610a4a90611838565b80601f0160208091040260200160405190810160405280929190818152602001828054610a7690611838565b8015610ac35780601f10610a9857610100808354040283529160200191610ac3565b820191906000526020600020905b815481529060010190602001808311610aa657829003601f168201915b505050505081565b60606000610ad8836109da565b905080600003610af8575050604080516000815260208101909152919050565b60008167ffffffffffffffff811115610b1357610b136114f9565b604051908082528060200260200182016040528015610b3c578160200160208202803683370190505b50600154600080549293509103600019019050600060015b828111610bba57866001600160a01b0316610b6e826109cf565b6001600160a01b031603610ba85780848381518110610b8f57610b8f6119c9565b602090810291909101015281610ba4816119df565b9250505b80610bb2816119df565b915050610b54565b509195945050505050565b50919050565b6060600380546105a390611838565b600c54610100900460ff1615610c295760405162461bcd60e51b815260206004820152600f60248201526e10dbdb9d1c9858dd0814185d5cd959608a1b60448201526064015b60405180910390fd5b600c5460ff16610c7b5760405162461bcd60e51b815260206004820152601760248201527f46696f6e61202d204e6f7420596574204163746976652e0000000000000000006044820152606401610c20565b6001546000546127339183910360001901610c9691906119f8565b1115610ce45760405162461bcd60e51b815260206004820152601960248201527f46696f6e61202d204265796f6e64204d617820537570706c79000000000000006044820152606401610c20565b610cf481655af3107a4000611988565b341015610d335760405162461bcd60e51b815260206004820152600d60248201526c46696f6e61202d2042656c6f7760981b6044820152606401610c20565b336000908152600d602052604081208054839290610d529084906119f8565b909155506109ac90503382611154565b3360008181526007602090815260408083206001600160a01b03871680855290835292819020805460ff191686151590811790915590519081529192917f17307eab39ab6107e8899845ad3d59bd9653f200f220920489ca2b5937696c31910160405180910390a35050565b610dd984848461070a565b6001600160a01b0383163b15610e1257610df58484848461116e565b610e12576040516368d2bf6b60e11b815260040160405180910390fd5b50505050565b610e20610ffd565b600c805461ff001981166101009182900460ff1615909102179055565b6060610e4882611057565b610eac5760405162461bcd60e51b815260206004820152602f60248201527f4552433732314d657461646174613a2055524920717565727920666f72206e6f60448201526e3732bc34b9ba32b73a103a37b5b2b760891b6064820152608401610c20565b6000600b8054610ebb90611838565b905011610ed75760405180602001604052806000815250610576565b600b610ee28361125a565b604051602001610ef3929190611a0b565b60405160208183030381529060405292915050565b610f10610ffd565b600c805460ff19811660ff90911615179055565b6001600160a01b03918216600090815260076020908152604080832093909416825291909152205460ff1690565b610f5a610ffd565b6001600160a01b038116610fbf5760405162461bcd60e51b815260206004820152602660248201527f4f776e61626c653a206e6577206f776e657220697320746865207a65726f206160448201526564647265737360d01b6064820152608401610c20565b6109ac81611102565b60006001600160e01b0319821663152a902d60e11b148061057657506301ffc9a760e01b6001600160e01b0319831614610576565b6008546001600160a01b03163314610a3b5760405162461bcd60e51b815260206004820181905260248201527f4f776e61626c653a2063616c6c6572206973206e6f7420746865206f776e65726044820152606401610c20565b60008160011115801561106b575060005482105b8015610576575050600090815260046020526040902054600160e01b161590565b600081806001116110e9576000548110156110e95760008181526004602052604081205490600160e01b821690036110e7575b806000036110e05750600019016000818152600460205260409020546110bf565b9392505050565b505b604051636f96cda160e11b815260040160405180910390fd5b600880546001600160a01b038381166001600160a01b0319831681179093556040519116919082907f8be0079c531659141344cd1fd0a4f28419497f9722a3daafe3b4186f6b6457e090600090a35050565b61059082826040518060200160405280600081525061135b565b604051630a85bd0160e11b81526000906001600160a01b0385169063150b7a02906111a3903390899088908890600401611aa2565b6020604051808303816000875af19250505080156111de575060408051601f3d908101601f191682019092526111db91810190611adf565b60015b61123c573d80801561120c576040519150601f19603f3d011682016040523d82523d6000602084013e611211565b606091505b508051600003611234576040516368d2bf6b60e11b815260040160405180910390fd5b805181602001fd5b6001600160e01b031916630a85bd0160e11b1490505b949350505050565b6060816000036112815750506040805180820190915260018152600360fc1b602082015290565b8160005b81156112ab5780611295816119df565b91506112a49050600a836119b5565b9150611285565b60008167ffffffffffffffff8111156112c6576112c66114f9565b6040519080825280601f01601f1916602001820160405280156112f0576020820181803683370190505b5090505b841561125257611305600183611afc565b9150611312600a86611b0f565b61131d9060306119f8565b60f81b818381518110611332576113326119c9565b60200101906001600160f81b031916908160001a905350611354600a866119b5565b94506112f4565b61136583836113c8565b6001600160a01b0383163b156109ca576000548281035b61138f600086838060010194508661116e565b6113ac576040516368d2bf6b60e11b815260040160405180910390fd5b81811061137c5781600054146113c157600080fd5b5050505050565b60008054908290036113ed5760405163b562e8dd60e01b815260040160405180910390fd5b6001600160a01b03831660008181526005602090815260408083208054680100000000000000018802019055848352600490915281206001851460e11b4260a01b178317905582840190839083907fddf252ad1be2c89b69c2b068fc378daa952ba7f163c4a11628f55a4df523b3ef8180a4600183015b81811461149c57808360007fddf252ad1be2c89b69c2b068fc378daa952ba7f163c4a11628f55a4df523b3ef600080a4600101611464565b50816000036114bd57604051622e076360e81b815260040160405180910390fd5b60005550505050565b6001600160e01b0319811681146109ac57600080fd5b6000602082840312156114ee57600080fd5b81356110e0816114c6565b634e487b7160e01b600052604160045260246000fd5b600067ffffffffffffffff8084111561152a5761152a6114f9565b604051601f8501601f19908116603f01168101908282118183101715611552576115526114f9565b8160405280935085815286868601111561156b57600080fd5b858560208301376000602087830101525050509392505050565b60006020828403121561159757600080fd5b813567ffffffffffffffff8111156115ae57600080fd5b8201601f810184136115bf57600080fd5b6112528482356020840161150f565b60005b838110156115e95781810151838201526020016115d1565b50506000910152565b6000815180845261160a8160208601602086016115ce565b601f01601f19169290920160200192915050565b6020815260006110e060208301846115f2565b60006020828403121561164357600080fd5b5035919050565b80356001600160a01b038116811461166157600080fd5b919050565b6000806040838503121561167957600080fd5b6116828361164a565b946020939093013593505050565b6000602082840312156116a257600080fd5b6110e08261164a565b6000806000606084860312156116c057600080fd5b6116c98461164a565b92506116d76020850161164a565b9150604084013590509250925092565b600080604083850312156116fa57600080fd5b50508035926020909101359150565b6020808252825182820181905260009190848201906040850190845b8181101561174157835183529284019291840191600101611725565b50909695505050505050565b6000806040838503121561176057600080fd5b6117698361164a565b91506020830135801515811461177e57600080fd5b809150509250929050565b6000806000806080858703121561179f57600080fd5b6117a88561164a565b93506117b66020860161164a565b925060408501359150606085013567ffffffffffffffff8111156117d957600080fd5b8501601f810187136117ea57600080fd5b6117f98782356020840161150f565b91505092959194509250565b6000806040838503121561181857600080fd5b6118218361164a565b915061182f6020840161164a565b90509250929050565b600181811c9082168061184c57607f821691505b602082108103610bc557634e487b7160e01b600052602260045260246000fd5b601f8211156109ca57600081815260208120601f850160051c810160208610156118935750805b601f850160051c820191505b8181101561089b5782815560010161189f565b815167ffffffffffffffff8111156118cc576118cc6114f9565b6118e0816118da8454611838565b8461186c565b602080601f83116001811461191557600084156118fd5750858301515b600019600386901b1c1916600185901b17855561089b565b600085815260208120601f198616915b8281101561194457888601518255948401946001909101908401611925565b50858210156119625787850151600019600388901b60f8161c191681555b5050505050600190811b01905550565b634e487b7160e01b600052601160045260246000fd5b808202811582820484141761057657610576611972565b634e487b7160e01b600052601260045260246000fd5b6000826119c4576119c461199f565b500490565b634e487b7160e01b600052603260045260246000fd5b6000600182016119f1576119f1611972565b5060010190565b8082018082111561057657610576611972565b6000808454611a1981611838565b60018281168015611a315760018114611a4657611a75565b60ff1984168752821515830287019450611a75565b8860005260208060002060005b85811015611a6c5781548a820152908401908201611a53565b50505082870194505b505050508351611a898183602088016115ce565b64173539b7b760d91b9101908152600501949350505050565b6001600160a01b0385811682528416602082015260408101839052608060608201819052600090611ad5908301846115f2565b9695505050505050565b600060208284031215611af157600080fd5b81516110e0816114c6565b8181038181111561057657610576611972565b600082611b1e57611b1e61199f565b50069056fea264697066735822122036a6e084ecb69c183a7dc09aa1d18137f7ac1c358967d34a70dbe2adab68848764736f6c63430008110033",
  "linkReferences": {},
  "deployedLinkReferences": {}
}